S02B00002F686F6D652F73747564656E74732F72723633322F576172702D6669726D776172652F6275696C6413
S1130000000600201D050000450500004505000010
S113001000000000000000000000000000000000DC
S11300200000000000000000000000004505000082
S11300300000000000000000450500004505000028
S11300404505000045050000450500004505000084
S1130050450500004505000045050000912F0000FE
S11300604B3E000045050000553E000045050000DC
S11300705F3E000045050000450500004505000001
S11300804505000045050000450500004505000044
S1130090692F0000812F0000450500004505000080
S11300A04505000045050000450500004505000024
S11300B04505000045050000A12F0000450500008E
S1130400FFFFFFFFFFFFFFFFFFFFFFFFFE3DFFFFBB
S11304100448054B10B5834203D0044B002B00D095
S1130420984710BD38FFFF1F38FFFF1F0000000072
S113043006480749091A8B10C90FC91810B5491085
S113044003D0044B002B00D0984710BD38FFFF1F8A
S113045038FFFF1F0000000010B5074C2378002B65
S113046009D1FFF7D5FF054B002B02D0044800E06B
S113047000BF0123237010BD38FFFF1F00000000E0
S1130480C85F0000054B10B5002B03D00449054894
S113049000E000BFFFF7CCFF10BDC0460000000025
S11304A03CFFFF1FC85F0000402292029A1A924646
S11304B07047C046154B002B00D1114B9D46FFF7EA
S11304C0F3FF00218B460F461148124A121A00F01E
S11304D09DFA0C4B002B00D098470B4B002B00D0FF
S11304E098470020002104000D000B4800F0C6F9D5
S11304F000F002FA2000290002F0A8FE00F0D2F970
S113050000000800000000000000000000060020B9
S113051038FFFF1FE4010020D108000072B606482E
S11305200649074A02600A6003F09EFC03F0DEFC01
S113053062B6FFF7BFFF000080E100E080E200E068
S1130540FFFFFFFF0048004745050000F8B5474698
S1130550CE464B003D4A5B0D9E1880B505000C004D
S11305600F008046132E31DC002E1FDB384B334145
S113057099460B4003434ED0364A374B00F05AFE9F
S11305800022002300F024FE002809D0002C03DA06
S113059080277F0337413F194B469F4300239846EA
S11305A0404639000CBC90469946F8BD294A2A4B6E
S11305B000F040FE0022002300F00AFE0028EFD0E5
S11305C0002C2BDB002300279846E9E7332E08DDB7
S11305D08023DB009E42E5D102000B0000F02AFEDE
S11305E0E0E71E4A9446012263445242DA409146AF
S11305F0024210D0174A184B00F01CFE00220023C0
S113060000F0E6FD0028CBD0002C0FDB43464A4621
S113061093439846C4E728002100C3E700236400FD
S1130620640825439846BBD00D4FB9E7142E09D072
S1130630342301209E1BB0404519A84504D9671CEA
S1130640A846E3E7671CE1E7A846DFE701FCFFFFF4
S1130650FFFF0F009C7500883CE4377EEDFBFFFF35
S11306600000F0BFF8B504000D0000F029F8134BAA
S113067006001B780F005BB201330FD022002B0061
S11306802000290002F044FB002807D100220023A7
S11306902000290000F088FD002802D13000390034
S11306A0F8BD00F0F9F821230022036000231000B4
S11306B0190001F029F906000F00EFE700FEFF1F03
S11306C0694AF8B50C00CE4647460B00110080B5C8
S11306D0060005002140914200D1A0E0002C68DD15
S11306E0211500D1B1E0614A1B03944680221B0B03
S11306F0520313435B00EA0F61449B186A00C80766
S113070003D5D20F5B009B18AA0049108C46002128
S113071080201624884680030D189D4202DC291887
S11307205B1B8044D50F5B00013CEB185200400872
S1130730002CF1D10020814680202026000609E00B
S11307408B425DD0D50F5B00013E5B19520040081F
S1130750002E16D005198B42F2DD2C180F00002D47
S11307604ADB5B1AAA42894149425B1A521BD50FE4
S11307705B00013E814439005B1952004008002EA1
S1130780E8D1134344D14B465E0843465910384BD5
S1130790994643464944DB0702D580231B061E4382
S11307A0634618054318190030000CBC904699465E
S11307B0F8BD6200520802434AD0002C3AD1E80A3C
S11307C0153B02006D050028F9D080214903084239
S11307D044D180200021400300E0210052004C1C41
S11307E00242FAD0202610002A00A540361B591ACE
S11307F01300F340034376E7E743FF0FCF19B0E755
S113080095429FD82C18002DF6DB1F000023ADE77E
S11308104B4601331ED04E4601367608B5E702003A
S113082023003000210001F075FC3200230000F0A9
S113083001FDBAE7020023003000210001F0D6FEDA
S113084002000B0001F060F8AFE722000023C0E7CC
S11308502100AAE701239946C84496E701212A000A
S113086020264942C3E7C0460000F07F01FCFFFF99
S11308700000E03FC317C0185840704710B501008E
S113088000230022002000F01FFA10BD10B50A005A
S1130890002100F0BBF810BD014B18687047C0463A
S11308A004FEFF1F084B10B50400002B02D00021EA
S11308B000F078FA054B1868836A002B00D098473B
S11308C0200002F0C7FAC046A50D0000805C0000BD
S11308D070B5074D074C641BA41005D0013CA30060
S11308E0EB589847002CF9D105F074FB70BDC04655
S11308F0EC5F0000F05F000070B50C4D0C4E761BF1
S1130900B61005D0002408CD01349847A642FAD188
S113091005F05AFB074D084E761BB61005D000248F
S113092008CD01349847A642FAD170BDE85F0000B3
S1130930E85F0000E85F0000EC5F000010B5034BC7
S11309400100186800F00CF910BDC04604FEFF1F3A
S113095010B5034B0100186800F0ACF810BDC04698
S113096004FEFF1FF0B5C64600B50F2A43D90B009D
S1130970032603431E400C000300002E40D1150043
S1130980103D2D09AC462D01A846804400E03B00F3
S1130990676825685F60E7681D60DF601F00A56801
S11309A010379D6010344345F1D165460F230C2464
S11309B001352D01491913404519144223D08C598E
S11309C0AC5104369C1B032CF9D80324043B9B082C
S11309D001339B002240ED18C918561E002A07D087
S11309E0002300E02300CA5C5C1CEA549E42F9D157
S11309F004BC9046F0BD0500561E002AF0D1F7E76E
S1130A00561E0500ECE71A00F6E7C046F0B50500EF
S1130A1083074AD0541E002A44D0CEB203000322D6
S1130A2002E00135013C3DD301332E701342F8D16D
S1130A30032C2FD9FF220A40150215432A0415431B
S1130A400F2C35D92700103F3F093E01B4461E0044
S1130A501A0010366644156055609560D5601032F2
S1130A60B242F8D10F260C2201373F012640DB1990
S1130A703700224217D03E1FB608B400A4461A001D
S1130A801C1D644420C2A242FCD103240136B600DA
S1130A909B193C40002C05D0C9B21C1919700133B4
S1130AA09C42FBD1F0BD3400F4E714000300BFE71F
S1130AB02700E0E770B50500002915D00C1F236856
S1130AC0002B27DB280000F0CBF9244B1A68002AFE
S1130AD005D0A2420CD921686018824224D06260F9
S1130AE028001C6000F0BEF970BDA34203D81A00B0
S1130AF05368002BF9D111685018A0421BD027D895
S1130B0021686018834207D063605460280000F0B5
S1130B10A9F9E9E7E418D5E718685B6884466144F5
S1130B20216063605460F1E7106852688446614450
S1130B3021606260D4E7206809185018116083426C
S1130B40E4D118685B688446614411605360DDE752
S1130B500C2328002B6000F085F9C5E754FFFF1F24
S1130B60F8B50323CD1C9D43083506000C2D2AD26D
S1130B700C25A94229D8300000F072F92A4F3A68AE
S1130B80002A0AD013685B1B04D441E023685B1B72
S1130B901FD522005468002CF8D17B68002B3DD06F
S1130BA02900300000F042F8431C2AD00323C41C5F
S1130BB09C43A04205D0211A300000F037F8431CB2
S1130BC01FD0256010E0002DD3DA0C230020336001
S1130BD0F8BD0B2B05D86368A2421DD0536003E017
S1130BE014002360E4182560300000F03BF9200075
S1130BF007220B30231D9043C21AE9D01B1AA350BD
S1130C00E6E70C233000336000F02CF90020DFE726
S1130C100B2BE5D8140053683B60E5E70021300056
S1130C2000F004F87860BBE754FFFF1F002370B5A1
S1130C30064C05000800236002F00EF9431C00D0A6
S1130C4070BD2368002BFBD02B60F9E7E001002086
S1130C5003000A7801311A700133002AF9D1704770
S1130C6010B5830727D00378002B26D00300032177
S1130C7002E01A78002A1CD001330B42F9D119681A
S1130C800F4A104C8A188A4322420FD10433196840
S1130C900B4A8A188A43224208D104331968084A45
S1130CA08A188A432242F1D000E001331A78002ADC
S1130CB0FBD1181A10BD0300E1E70020FAE7C04693
S1130CC0FFFEFEFE80808080F0B546464F46D64645
S1130CD0C0B51F002F4B82B01C6805000E00904663
S1130CE0002C2DD063681F2B50DC002D1CD08822D3
S1130CF0A0589146002834D07832825894469A00FD
S1130D0091468144424649460A600121624699401F
S1130D100A43944680228A466146520081504946DD
S1130D20803A8F50022D16D000205A1C02339B00AB
S1130D3062601E5102B01CBC90469946A246F0BDAA
S1130D40154C1C60154B002BCCD01B6801938823D9
S1130D50019AE250C6E75546843281580D438550C6
S1130D60E2E70F4B002B11D084204000FFF7E6FD93
S1130D7000280BD080220023520083500432835079
S1130D804B460022E05094466368B8E70120404295
S1130D90D0E7C046E8FFFF1F5CFFFF1F0000000014
S1130DA03D090000F0B5DE464E46454657462B4BFE
S1130DB088469B46E0B51E6883B00190002E45D05E
S1130DC088237568F7586C1E40D40135AD0078331C
S1130DD075199A460AE0002F05D03B00A200803323
S1130DE09B58434505D0043D013C2FD34346002B7B
S1130DF0F1D173682A68013BA34222D000232B60FF
S1130E00002AF0D073689946002F18D00123514668
S1130E10A3407958194212D0822040003858A100CA
S1130E207958009018420ED1019890475B46726839
S1130E301B684A4501D1B342D5D01E00BEE7904796
S1130E40F4E77460DCE708009047EFE703B03CBCCC
S1130E5090469946A246AB46F0BDC046E8FFFF1F48
S1130E607047C0467047C04602B4714649084900FD
S1130E70095C49008E4402BC7047C04603B4714605
S1130E80490840004900095E49008E4403BC70478C
S1130E90002243088B4274D303098B425FD3030AB5
S1130EA08B4244D3030B8B4228D3030C8B420DD3C8
S1130EB0FF22090212BA030C8B4202D31212090256
S1130EC065D0030B8B4219D300E0090AC30B8B4294
S1130ED001D3CB03C01A5241830B8B4201D38B0342
S1130EE0C01A5241430B8B4201D34B03C01A5241E7
S1130EF0030B8B4201D30B03C01A5241C30A8B422A
S1130F0001D3CB02C01A5241830A8B4201D38B0214
S1130F10C01A5241430A8B4201D34B02C01A5241B8
S1130F20030A8B4201D30B02C01A5241CDD2C3092A
S1130F308B4201D3CB01C01A524183098B4201D3A6
S1130F408B01C01A524143098B4201D34B01C01A91
S1130F50524103098B4201D30B01C01A5241C30809
S1130F608B4201D3CB00C01A524183088B4201D378
S1130F708B00C01A524143088B4201D34B00C01A64
S1130F805241411A00D20146524110467047FFE7D0
S1130F9001B5002000F0F0F802BDC0460029F7D0EA
S1130FA076E7704703460B437FD4002243088B4205
S1130FB074D303098B425FD3030A8B4244D3030BDC
S1130FC08B4228D3030C8B420DD3FF22090212BAA1
S1130FD0030C8B4202D31212090265D0030B8B421D
S1130FE019D300E0090AC30B8B4201D3CB03C01A07
S1130FF05241830B8B4201D38B03C01A5241430BE2
S11310008B4201D34B03C01A5241030B8B4201D3D1
S11310100B03C01A5241C30A8B4201D3CB02C01A3C
S11310205241830A8B4201D38B02C01A5241430AB4
S11310308B4201D34B02C01A5241030A8B4201D3A3
S11310400B02C01A5241CDD2C3098B4201D3CB014A
S1131050C01A524183098B4201D38B01C01A5241F9
S113106043098B4201D34B01C01A524103098B42FD
S113107001D30B01C01A5241C3088B4201D3CB00E8
S1131080C01A524183088B4201D38B00C01A5241CB
S113109043088B4201D34B00C01A5241411A00D27B
S11310A001465241104670475DE0CA0F00D04942E4
S11310B0031000D34042534000229C4603098B4254
S11310C02DD3030A8B4212D3FC22890112BA030ADC
S11310D08B420CD3890192118B4208D3890192115E
S11310E08B4204D389013AD0921100E08909C309E3
S11310F08B4201D3CB01C01A524183098B4201D3E5
S11311008B01C01A524143098B4201D34B01C01ACF
S1131110524103098B4201D30B01C01A5241C30847
S11311208B4201D3CB00C01A524183088B4201D3B6
S11311308B00C01A5241D9D243088B4201D34B00D1
S1131140C01A5241411A00D20146634652415B1013
S1131150104601D34042002B00D5494270476346F4
S11311605B1000D3404201B5002000F005F802BD39
S11311700029F8D016E770477047C0468446101C13
S113118062468C46191C634600E0C0461FB500F059
S113119051FF002801D40021C8421FBD10B500F042
S11311A09BFE4042013010BD10B500F043FF002803
S11311B001DB002010BD012010BDC04610B500F0B9
S11311C039FF002801DD002010BD012010BDC046FC
S11311D010B500F0BDFE002801DC002010BD012088
S11311E010BDC04610B500F0B3FE002801DA00209F
S11311F010BD012010BDC04670B500220C4B040088
S11312000D00FFF7EFFF002804D12000290001F0B2
S11312109DFD70BD064B00222000290001F0E6F977
S113122001F094FD80231B069C466044F1E7C04610
S11312300000E041F0B54F46D64646460D00010099
S11312401800C0B517002B035A0A4B0F1343CA00EA
S1131250914602036E004100520AEC0F7D0F1543C4
S1131260760D490DC00F8246AC46FF00721A8442C7
S113127000D198E0002A00DC81E0002900D1B6E02A
S1131280C9498E4200D172E1802128000904084333
S11312908446382A00DD5EE11F2A00DDEEE12020CD
S11312A039006546801A8740D14085400D43390096
S11312B04F1EB9416746D7402943DB1B4A46551A9E
S11312C0A945894149425B1A984643461B0200D40A
S11312D0CCE043465B025B0A98464346002B00D1B0
S11312E02CE1404601F098FD010008392022280035
S11312F04346521A8B40D0408D4003438E4200DD5A
S113130017E18E1B721C1F2A00DDA7E120211800A3
S11313102E00891A8D408840D640D340691E8D41E5
S113132030439846002605436B0709D00F232B4012
S1131330042B05D02B1DAB42AD416D42A8441D00CA
S113134043461B0200D494E0974B721C9A4200D18E
S11313509DE04146954BED0819400B0052054907A5
S11313605B0229431B0B520D12051343E40723436D
S1131370080019001CBC90469946A246F0BD002AFC
S113138043D08A1B002E00D02AE14C461C4300D1D6
S1131390D1E1541E012A00D11FE2834DAA4200D19B
S11313A072E2220023E1002A00DC98E0002942D006
S11313B07D498E4200D1DAE08021280009040843E7
S11313C08446382A00DD29E11F2A00DC87E1110068
S11313D065462039CD40202A04D040206146821A37
S11313E091400F4339004F1EB9410D431BE12900C1
S11313F0394300D1B5E0511E012A00D1ABE16A485E
S1131400824200D1B2E10A0043E76949751C0D42EA
S113141000D0CFE0002E00D093E14946194300D11B
S1131420D1E16146394300D0E3E149465807C90890
S11314300143DB0826E02900394300D191E0511E25
S1131440012A05D05848824200D18FE10A00B8E74A
S11314503D004D444D458941634498464942884482
S1131460434602261B0200D5EBE0013E6B0700D089
S11314705CE74346E9085A0711433200DB084A484F
S1131480824221D01B0352051B0B520D6CE7002333
S1131490002169E72A003A4369D04A465807D1082F
S11314A0DA0880231B0308431A4207D02900ED08F9
S11314B01D4203D12A00FF0848073843430FC100E7
S11314C05B07C908194313000A001A4300D113E249
S11314D08022120313431B03334A1B0B44E7002AE5
S11314E04BD08A1B002E00D1E7E02F48814200D167
S11314F095E1802000040343382A00DD43E11F2ADC
S113150000DDDBE120201D004E46801A8540D640D8
S113151035434E4686403000D340461EB0419C447D
S11315200543ED19BD429B415B42634498460E005E
S11315307FE01E4A761A13409846F5E6280001F02B
S11315406BFC010018311F2900DCCFE62B000838A2
S113155083400025D2E662463A4311004F1EB9414A
S1131560ACE649465807C9080143DB0887E7494602
S11315705A07C9081143DB08A6E70D49701C084245
S113158000D0BBE0002E00D014E14946194300D13D
S113159075E12900394300D07EE149465807C9085E
S11315A00143DB086EE7C046FF070000FFFF7FFF33
S11315B0FE0700004946CD1B6146581AA9458941DA
S11315C04942884601004046091A8846090200D566
S11315D0A6E04146294300D07FE60023002451E7DA
S11315E0C74CA14200D1C7E0802424042343382AF5
S11315F054DC1F2A00DDCCE020244846A41A1D0038
S11316004E46A040D640A5400400D3406246354330
S1131610661EB441D31A9C46254344E062463A43CD
S113162015006F1EBD414D444D45894149428846D0
S1131630984443461B0200D418E7B14B01369E423E
S113164049D04246AF4B01211A4013006A080D40AD
S11316501543D9075B0898460D4365E618001F3EFD
S1131660F040202A03D040218A1A93401D43691E6A
S11316708D410023002698460543F7E61100654690
S11316802039CD40202A04D040206146821A91405E
S11316900F4339004F1EB94129430FE64A4613430D
S11316A01D006B1E9D417D1BAF429B4162465B4208
S11316B0D31A984654460E0007E64846184300D10C
S11316C0B3E0501E012A00D10DE18D4DAA4200D194
S11316D0A5E0020010E732000023002144E62021A7
S11316E03800891A65468F408D40D040791E8F415D
S11316F005433D436746D740DB1994E7804A90424F
S113170000D1ECE0390049444945924163445242D6
S11317109B18DD0749085B08984606000D43A5E6BB
S11317204A46BD1AAF42894162464942D31A5B1AFE
S113173098465446D1E56C07F9082143EB080400A8
S11317409DE64A461A4375D16146394314D1802334
S113175000241B03BCE64A46D51BA94589416246C1
S113176049429B1A5B1A98460126AEE54A46D108BF
S11317705A071143DB08A7E66346F9085A0754469B
S11317801143DB08A0E64A4613431D006B1E9D412E
S1131790C7E614001E00203CE640202A05D0402461
S11317A0A21A93404A461A4391464D466B1E9D41E8
S11317B0354378E74A461A4300D06BE66B07F908CD
S11317C01943EB0880E66146394354D06346F9086F
S11317D05C072143DB08040054E64A46BD1AAF42C5
S11317E0894162464942D31A5B1A9846040001268D
S11317F06BE54A46D51BA9458941624649429A1A76
S1131800521A9046120232D54A46BD1AAF42894155
S113181062464942D31A5B1A9846040084E563463B
S1131820F9085A071143DB084EE6F9086807014333
S1131830EB0824E662463A4300D198E64A46D108CA
S11318405A071143DA0880231B031A4208D0604662
S1131850C5081D4204D154462A00F9084307194318
S11318604B0FC9005B07C908194313002CE6414616
S1131870294300D0FAE500230A00002402E66B079E
S1131880F9081943EB08FDE56346F9085B071943BA
S113189063460400DB0817E63D004D4463444D45B0
S11318A0894198464942884443461B0200D4DDE5F9
S11318B04246144B01261A409046D7E510001E00FC
S11318C02038C640202A05D04020821A93404A4638
S11318D01A4391464D466B1E9D41354321E6020055
S11318E00023002140E54A46D519BD42894163449D
S11318F0984649428844B3E50021014A0B0033E588
S1131900FF070000FFFF7FFFF0B557464E464546F0
S1131910DE46E0B5814605000C03480092461F00F0
S113192085B0240B400DCE0F002859D0874B984228
S113193000D198E06B0FE4001C4380231B04234375
S11319409846834BED009B460023994683440093BD
S11319503C037B005046240B5B0DFF0F002B67D02C
S11319607A4A934218D07A49420F8C46E400594689
S11319701443802263441204CB1A14439B46C200CE
S1131980002033007B409A464B460F2B00D9EFE0F2
S113199070499B00CB589F466F4B52469C4622434E
S11319A0E344002A00D095E04946022319438946BE
S11319B000240220E5E700230024002552461B05ED
S11319C02343D20713432800190005B03CBC9046BA
S11319D09946A246AB46F0BD002400255B4BEDE7DB
S11319E04B462343984600D189E0002C00D1E0E126
S11319F0200001F011FA010002000B391D235B1ACB
S1131A0049461000D940083884400B004D46234312
S1131A109846854051483C03831A9B4600239946C7
S1131A2000937B005046240B5B0DFF0F002B97D1D6
S1131A305246224355D0002C00D1CAE1200001F0C7
S1131A40EBF902000B3A1D2301009B1A5246083998
S1131A50DA408C40144352468A40414B58449B46DA
S1131A60834400208DE74B462343984640D1082306
S1131A709946063B00258346009369E7B246009BDE
S1131A80022BA9D0032B00D111E2012B93D0354AAC
S1131A905A44002A00DC3CE16B0700D0A7E1ED08C2
S1131AA04346DB0106D542462F4B1A40904680221E
S1131AB0D2005A442D4B9A428EDC434652055807B5
S1131AC05C020543240B530D78E7BA46A046150083
S1131AD00090D4E74A4603231A4391460320524612
S1131AE04FE749460123194389460024012048E76A
S1131AF00C239946093BA0468346009328E7042318
S1131B00994600239B4601330025009320E70023D8
S1131B1080249A4600250D4B24034FE78023414639
S1131B201B03194208D01C4206D11C432403BA46A5
S1131B301500064B240B41E78024434624031C4331
S1131B402403B246014B240B38E7C046FF070000CC
S1131B5001FCFFFF845C000001F8FFFF0DFCFFFFA8
S1131B60F3030000FF030000FFFFFFFEFE07000079
S1131B70444500D216E100D111E101235B429C46A9
S1131B802E0040460025E3442302140E1C431B0C84
S1131B90994623041F0C1202494600920197FFF74D
S1131BA0FDF902007A430B04310C804619438A4242
S1131BB00BD901235B429C460919E0448C4204D8AA
S1131BC08A4202D9831E98460919881A4946FFF7A2
S1131BD0E5F909048C4631046646019A090C42432E
S1131BE0030031438A4204D90919013B8C4200D8CD
S1131BF011E1891A4246009E12041A43330C1F0055
S1131C00100C9046029313043204160C32001B0C81
S1131C105A4303967B4346437843170CBC469B19AF
S1131C2063449E4203D980267602B44660441E0C67
S1131C30301816041B04360C9E19814200D29CE015
S1131C4000D197E0AE1B091AB54280414042081A00
S1131C50844200D111E14946FFF7A0F9019A0B042F
S1131C604243310C050019438A4207D90919013D41
S1131C708C4203D88A4201D9851E0919881A49461B
S1131C80FFF78CF909048C4631046646019A090C65
S1131C904243030031438A4207D90919013B8C426C
S1131CA003D88A4201D9831E0919039E891A320076
S1131CB02D041D43029F2B041B0C5A437B439C465B
S1131CC0280C4643130CB444634478439E4203D91E
S1131CD080267602B44660441E0C12041B04120CC7
S1131CE030189B18814206D302D001231D43CEE64F
S1131CF0002B00D1CBE661186E1EA14200D2A4E0F5
S1131D00814200D2C9E000D1D9E03500EDE70125D8
S1131D106D420121891A382900DD4CE61F2900DCB7
S1131D207FE01F235B429A1A4346D340202904D004
S1131D304446654A5A44944025436A1E9541072205
S1131D402B43150000241D401A4200D1A1E00F22AC
S1131D5000241A40042A00D198E01A1D9A429B419B
S1131D605B42E4181300220200D48FE00123002414
S1131D70002523E6B54200D364E743465A1E009B80
S1131D809C4665441F009D429B415B421B19C91838
S1131D908C423AD2884263D860D0904652E7AA4235
S1131DA000D9EAE64346DE0758086B081E43ED07F0
S1131DB0EAE6484601F030F801000200153120320D
S1131DC01C2900DC1AE64B46083883400025984657
S1131DD020E601F021F803001A00153220301C2AF5
S1131DE000DC30E65446083B00229C4035E60F23D5
S1131DF02B40042B00D152E605235B42AB429B41AE
S1131E0004355B42ED0898444AE68C42C5D1AF42A2
S1131E10C0D9904616E78A4200D8EAE6831E09191B
S1131E20E7E62A4A28005A44434695409340C8406E
S1131E306A1E9541444603432B43CC405A0792D033
S1131E400F221A40042A88D18DE73500814200D040
S1131E504BE7009A934200D047E718E6AE429CD97C
S1131E6002235B429C46009BE0449C4665449D42A1
S1131E709B415B421B19C918E4E6154A5A44002ADF
S1131E8000DC44E701230025984409E66507640261
S1131E90240BDB081D43002390E5009E023D7200E5
S1131EA0B242BF417F423C1909190092CEE7802417
S1131EB0434624031C432403064B240B7EE5009A6B
S1131EC09A42EAD33500C4E73E0400001E04000031
S1131ED0FF030000FF070000F0B54F464646D64614
S1131EE0944691461A03120B184DC0B54C000F03CB
S1131EF092465A00060080463F0B0120640DC90F2C
S1131F00520DDB0FAC420AD0AA4203D0944201D155
S1131F1057450DD01CBC90469946A246F0BD3D00E5
S1131F203543F7D1A242F5D1524665462A43F1D151
S1131F300120C845EED1994206D0002CEAD13E4397
S1131F403000461EB041E5E70020E3E7FF0700004C
S1131F50F0B54E4645465746DE4604001800E0B547
S1131F6016001B031B0B324D0F034A009946430016
S1131F70A446B0463F0B520DC90F5B0DC00FAA42D9
S1131F8029D0AB4218D0002A2AD13C43A34665424B
S1131F906541002B02D14C46264327D0002D15D194
S1131FA0814228D002200139084001383CBC9046C7
S1131FB09946A246AB46F0BD4D462E432FD1002A8A
S1131FC0EED13C4365426541002DE9D00028EDD1B6
S1131FD001204042EAE73D00254320D19342EBD063
S1131FE0002BDDD14C462643DAD1DBE75B460020EB
S1131FF0002BDBD0D6E79A420ADCE7DB4F45D1D889
S113200010D000204F45D1D20029E1D00800CDE7FF
S1132010434258410223404218400138C6E7022097
S11320204042C3E7C445BDD80020C445BED2EBE757
S1132030FF070000F0B54E4645465746DE4604000D
S11320401800E0B516001B031B0B314D0F034A00AB
S113205099464300A446B0463F0B520DC90F5B0D91
S1132060C00FAA4211D0AB4214D0002A2FD13C4356
S1132070A34665426541002B14D14C46264311D139
S11320805B460020002B17D010E03D00254312D101
S113209093421CD14D462E430DD1002A04D13C431A
S11320A065426541002D0DD1814216D002200139CF
S11320B00840013800E002203CBC90469946A24604
S11320C0AB46F0BD0028F7D101204042F4E7002BD5
S11320D0EAD14C462643E7D1E8E79A4206DD43427B
S11320E058410223404218400138E5E79A42E9DBAF
S11320F04F45DBD806D000204F45DDD20029E3D080
S11321000800D9E7C445D1D80020C445D4D2F5E7A6
S1132110FF070000F0B557464E464546DE46E0B59B
S113212098460C034B000600924687B0240B5B0DC7
S1132130CF0F002B6CD0DD4A934200D186E0420FD2
S1132140E4001443802212041443D94AC50094467F
S113215063440093002399469B46434642461E032C
S1132160D20F5B0050469046360B5B0D00D178E0F1
S1132170CE4A93421DD0CE49420F8C460099634407
S1132180F6008C46164380229C4412046346164390
S1132190C200002000930099434601318C46494611
S11321A07B4001930F2900D97EE0C24B8900595826
S11321B08F465246009B324300D056E1BB4900266D
S11321C08C466344494600930223194389460220FE
S11321D0E1E7434601933400150083465B46022B36
S11321E05ED0032B00D1F3E1012B00D018E10022D3
S11321F000240025019B12052243DB071A43280013
S1132200110007B03CBC90469946A246AB46F0BDCF
S11322102500054300D141E1002C00D1ADE12000AF
S113222000F0FAFD010002000B391D2310005B1AB7
S11322303100350008388440D94085400C439E481D
S1132240831A0093002399469B4686E7050025439D
S113225000D01CE1082200930223002491469B46EF
S11322607BE75246324300D10AE1002E00D176E1E9
S1132270300000F0D1FD02000B3A1D2301009B1A2F
S113228052460839DA408E40164352468A40009B33
S11322908949181A03008C466344002000937AE7A6
S11322A000240025814AA5E72F0C2D042D0C2B00BA
S11322B0110C1204120C53439846130028007B435C
S11322C0994648434844834640460B00000C8246E6
S11322D058467B4350440293814506D99A4680234D
S11322E05B029946CA4453460293030C9B464346F9
S11322F01B0400041B0C9846030043440493330C52
S113230099462B003604360C7343984633007B43BE
S11323109A464B465D435F4343465544180C401967
S1132320824503D980235B029A465744050CEB1976
S1132330059343461D042D0C00044019250C240468
S1132340240C270057436A4390462A003B0C9A46C4
S11323504A436143414451448344884503D980231B
S11323605B02984642443F040B0C3F0C0904C91914
S1132370270098464B4677435C436E435D433B0CD2
S11323809946A4194C4442440395A64204D9802397
S11323905B02984645440395029B3F045B441E0040
S11323A08342804123049846059B3F0C474498464A
S11323B076188E428941474440423D18A8469346C8
S11323C049428A46C3449F42BF4180458041039BA2
S11323D0DA449846534640427F420743240C9345CF
S11323E092418A4589413F19DC0D049B75021D43C6
S11323F0681E85415346524249420A43BF18474426
S1132400F60D7F0235435A023C431543FB0100D4C9
S1132410C1E001216A080D401543E2071543640831
S113242026496144002956DD6B0709D00F222A4052
S1132430042A05D02A1DAA42AD416D426419150033
S1132440E30104D580211E4AC900144061441D4A99
S1132450914200DD24E76207ED0864024905154353
S1132460240B4A0DC6E60197B8E6104A03209446A9
S113247063444A46009303231A43914652468AE62C
S113248049460123194389460026012083E60C228C
S113249000930323050091469B465EE60423994678
S11324A000230093013300249B4656E6FF070000F7
S11324B001FCFFFFC45C00000DFCFFFFFF030000F4
S11324C0FFFFFFFEFE070000002380240025444A8E
S11324D0019324038EE60120401A382800DD86E6A5
S11324E01F285BDD1F2223005242511ACB401900E2
S11324F0202803D03B4A6244944025436A1E9541F8
S11325002A000A4307210D000024154011425BD024
S11325100F2100241140042953D0111D91429241EE
S11325205242A4180A0023024BD50122002400259C
S113253060E680231B031C4209D01E4207D13343AB
S11325401C0343461500240B254A019352E68022BE
S1132550120314432403224A240B01974AE600F091
S11325605BFC03001A00153220301C2A00DC84E6D0
S11325705646083B00229E4089E600F04DFC0100CF
S11325800200153120321C2900DC4EE634000838E4
S11325900025844053E6009B9C4641E712492200F3
S11325A061442E008D408A40C640691E8D413243ED
S11325B02A43C4405307B6D00F2111400429ACD19B
S11325C0B1E765076402240BD2081543002211E623
S11325D08022120314432403014A240B0AE6C04652
S11325E0FF0700003E0400001E040000F8B5574633
S11325F04E464546DE460400E0B51F0010000B03BE
S1132600620F4E00CD0F5B0A39031343490AE200FF
S1132610440F2143C24C91469246C0007A00804642
S1132620760D520DFF0FA24200D1B4E001246740A1
S1132630BB46BD4200D188E0B41AA446002C00DC9D
S1132640B2E0002A00D1C5E0B54A964200D18BE23F
S11326508022120411436246382A00DDA1E11F2AB8
S113266000DD16E220270C00BF1ABC400200A04681
S11326706446B840E240444614430200501E82417E
S11326806046C14022435B1A49468C1AA1459241D7
S113269052429B1A984643461B0200D417E1434614
S11326A05B025B0A98464346002B00D16CE140462E
S11326B000F0B2FB0200083A202120004346891AA8
S11326C09340C84094400343964200DD57E1961B73
S11326D0711C1F2900DDCBE1202218002600521AAC
S11326E094409040CE40CB40621E94413043984683
S11326F000260443630709D00F232340042B05D08D
S1132700231DA342A4416442A0441C0043461B026F
S113271000D4DFE0824B01369E4200D1FBE042460A
S1132720804BE4081A401300710552075B022243F0
S11327301B0B490D0905ED071943294310003CBC47
S113274090469946A246AB46F8BDB41AA446002C5E
S113275058DD002A00D19EE0714A964200D13BE147
S11327608022120411436246382A00DDC1E01F2A88
S113277000DCBBE10C00203AD44022006446202C4B
S113278004D040273F1BB940084380464446611E9D
S11327908C411443B1E00C0004432AD0BB46BD4233
S11327A02DD0614CA446B4446446002C5CD0941BE8
S11327B0A446002E00D015E14D461D4300D1C3E1CF
S11327C0651E012C00D10CE2554EB44200D1F8E153
S11327D0AC460EE10A00024300D136E12200013A80
S11327E0012C00D1C6E14E4CA44500D1F4E094463E
S11327F031E701246740BB46BD4200D01CE74A4C88
S1132800A446B4446446002C00D1CFE0941BA446F3
S1132810002E00D15CE1424EB24200D1ECE18026B0
S1132820360433436446382C00DDB3E11F2C00DD4D
S113283038E22026361B1C00B4404F46A0466446AE
S1132840E74044463C434F46B7403E00771EBE41F6
S113285034436646F340C918241884429B415B42C2
S11328609846160088444EE0304A741C144200D046
S1132870D6E04A461A43002E00D05BE1002A00D17C
S1132880A5E10A00024300D0BBE14A465907D20839
S11328900A43DB0827E00A00024300D174E1220066
S11328A0013A012C05D01E4CA44500D194E0944675
S11328B059E74844484592415B18984604005242FF
S11328C09044434602261B0200D5C4E0013E630740
S11328D000D011E74346B4465907E2080A43DB082F
S11328E00F498C4540D061461B0349051B0B490D1C
S11328F020E701430C00611E8C414C444C4592413D
S113290052429046984443461B02E0D5044B01369C
S11329109E4200D09FE03100002300220AE7C04617
S1132920FF070000FFFF7FFF01F8FFFFFE07000025
S1132930002A00D160E10A0002434DD04A465C07F8
S1132940D20822438024DB082403234207D0CE0884
S1132950264204D15D463300C20849070A43510F99
S1132960D200D20849070A431100194300D1C8E133
S1132970802109030B431B03D5491B0BDAE6D54918
S1132980B61A0B409846B5E6200000F045FA02005E
S113299018321F2A00DC8FE6230008388340002405
S11329A092E608430200501E82416DE6CA4C721C36
S11329B0224200D0ADE04A461A43002EB8D1002A84
S11329C000D158E10A00024300D059E14A465907B0
S11329D0D2080A43DB0886E74A465907D2080A4365
S11329E0DB08C1E7BA4DAA4200D11EE180252D04BF
S11329F02B436446382C5DDC1F2C00DDD0E0202501
S1132A0067462D1B4E461C00FE40AC4034434E46E8
S1132A10AE403500FB406E1EB541C91A2C434EE052
S1132A204A46141AA1459241524290465F1A3A000E
S1132A304746D21B9046120200D58BE04246224301
S1132A4000D030E6002300254DE74A465907D20856
S1132A500A43DB0844E742469E4B61081A401300D0
S1132A60012214400C43DA075B089846144341E6FC
S1132A701A001F3EF2401600202903D04022511AAA
S1132A808B401C43621E9441002334439846002625
S1132A901DE70C00203AD44022006446202C04D0C8
S1132AA040273F1BB940084380464446611E8C4181
S1132AB02243E9E54C4623431C00631E9C41041B4E
S1132AC0A0429B415B42CB1A98465D461600E2E564
S1132AD04E461E4300D1AEE0661E012C00D1FDE03F
S1132AE07B4FBC4200D107E1B4469BE664462022FA
S1132AF0121B0C00944007009040A0466446421EFE
S1132B0090416246E7404446D1403C4304435B184D
S1132B10F3E66F4CA24200D1D5E048445B18484527
S1132B20894149425B18DC0740085B089846160057
S1132B300443CCE6002A00D082E00A00024340D1DC
S1132B40802300251B0313E74B07C2081A435D4685
S1132B50CB08C5E64A46841AA0429241CB1A524297
S1132B609B1A98465D469EE54A465907D2080A4391
S1132B70DB08F9E64A46141AA14592415B1A52420F
S1132B809B1A9846012686E54A465907D2080A4305
S1132B90DB08A5E64C4623431C00631E9C415BE610
S1132BA065461E00203DEE40202C05D040252D1BFF
S1132BB0AB404C461C43A2465446631E9C413443DE
S1132BC07DE74B07C2081A435D46CB08CCE60A00F2
S1132BD0024300D136E74B07C2081A435D46CB08CF
S1132BE081E64A46841AA0429241CB1A52429B1A69
S1132BF098465D4601264EE54B07C2081A43CB08AA
S1132C00B2E64A46141AA14592415F1A5242BA1AD0
S1132C10904612026BD54A46841AA0429241CB1ABE
S1132C2052429B1A98465D4664E54B07C2081A4314
S1132C305D46CB0898E64B07C2081A43CB084FE61B
S1132C400A00024390D04A465C07D208144380220B
S1132C50DB081203134208D0CE08164205D1C0087F
S1132C604907084304005D463300610FE200490749
S1132C70D2080A4378E64B07C2081A43CB0832E667
S1132C8048445B1848459241984652429044434612
S1132C9004001B0200D41AE642460E4B01261A40D9
S1132CA0904614E666461F00203EF740202C05D0CF
S1132CB04026361BB3404C461C43A2465446631E72
S1132CC09C413C43C8E511000023002232E5C04684
S1132CD0FF070000FFFF7FFFFE0700004A461418AD
S1132CE0844292415B18984652429044E9E5424638
S1132CF0224300D1A6E6EAE54B07C2081A43CB08F3
S1132D0032E600220149130014E5C046FF07000023
S1132D1070B505000C480C03160049001A035B004B
S1132D20240B490D120B5B0D814208D0064900208B
S1132D308B4203D132431000421E904170BD0120EA
S1132D402C43FBD1F2E7C046FF0700000A0030B570
S1132D50134C530009030500090B00205B0DD20F2F
S1132D60A34204DD0F48834202DD0F4BD01830BD6F
S1132D708020400301430D48C01A1F2808DD0C4879
S1132D80C31AD9400B005842002AF0D11800EEE7CC
S1132D90084CC540A446634499400B002B43F2E71A
S1132DA0FE0300001D040000FFFFFF7F330400004A
S1132DB013040000EDFBFFFF70B5002816D0C31705
S1132DC0C5185D40C40F280000F026F8114A121AF5
S1132DD00A2816DC03002E0015339E400B23181A14
S1132DE0C54053052D032D0B5B0D03E00024002388
S1132DF0002500261B052B43E4072343300019005C
S1132E0070BD0B38854053052D0300262D0B5B0D3B
S1132E10F0E7C0461E0400001C2101231B04984255
S1132E2001D3000C10391B0A984201D3000A083957
S1132E301B09984201D30009043902A2105C40180E
S1132E407047C046040302020101010100000000B2
S1132E5000000000FEE7C0460A4A0300116810B5EE
S1132E60002901D10849116010680849C3188B4230
S1132E7006D9FDF711FD0C2303600120404210BD6B
S1132E801360FCE7ECFFFF1FE8010020E8010020CD
S1132E90837802209842804140427047437A002060
S1132EA0013B012B03D90B78013001330B707047C0
S1132EB0C023174A9B001360164A1360164A136016
S1132EC00023164A1360164A1360164A1360164A02
S1132ED01360164A1360164A1360164A1360164AA2
S1132EE01360164A1360164A1360164A1360164A92
S1132EF01360164A1360164A1360164A1360164A82
S1132F001360164A1360164A1360164A136070471A
S1132F100090145404901454089014540C901454B5
S1132F201090145414901454189014541C90145465
S1132F3020901454249014543090145400A0145429
S1132F4004A0145408A014540CA0145410A0145435
S1132F5014A0145418A014541CA0145428A01454DD
S1132F602CA0145434A0145410B5002002F094FB87
S1132F70002803D00021080002F082FB10BD0000ED
S1132F80024A1368013313607047C0463C000020B6
S1132F9010B50721014802F04BF810BD00C00740EE
S1132FA00122024B52421A607047C046A09004406E
S1132FB010B5002001F0FEF98023054A9B00136040
S1132FC0044A00200449136001F05CFD10BDC046B2
S1132FD00CA0145410A01454400000200FB41FB5CA
S1132FE006AB02CB00200393402303AA0093064BB5
S1132FF000F0F4FD002803DA0020044900F022FD6B
S113300005B008BC04B01847F9FFFF1F3E5E00007E
S113301070B5784D04002B88834200D181E0764B53
S1133020764AC3189BB2934200D9DEE08023744AE7
S11330305B001360734A1360734A1360734A13602E
S1133040734A1360734B984200D194E02AD8724BB0
S1133050984200D174E015D8C83B984267D009D88B
S1133060C83B984244D06D4B98425BD06C48FFF704
S1133070B5FF4DE06B4B9842F8D10C20FF3001F0C6
S113308017FC58E096231B01984266D0664B984281
S113309000D16BE0654B9842E8D10C20FF3001F081
S11330A007FC51E0624B984200D183E00FD8C83B43
S11330B0984200D170E05F4B984200D175E05E4BBE
S11330C09842D3D10C20FF3001F0F2FB57E0C82323
S11330D01B01984200D17AE0584B984200D17FE01E
S11330E0574B9842C2D10C20FF3001F0E1FB65E060
S11330F00C20FF3001F0EAFB8520400001F0E6FBE4
S11331000820FF3001F0E2FB8320400001F0DEFBE9
S11331104C4B186800F0A7FF0620FF3001F0C8FBF5
S11331202C8070BD0C20FF3001F0C2FBE4E70C20C2
S1133130FF3001F0CBFB8520400001F0B9FBDFE755
S11331400C20FF3001F0C2FB8520400001F0BEFBE3
S11331500820FF3001F0ACFBD6E70C20FF3001F073
S1133160B5FB8520400001F0A3FBF1E70C20FF3004
S113317001F09EFBF5E70C20FF3001F0A7FB852052
S1133180400001F0A3FB0820FF3001F09FFB8320E7
S1133190400001F08DFBBBE70C20FF3001F096FBF3
S11331A08520400001F084FBEDE70C20FF3001F0A6
S11331B07FFBF5E70C20FF3001F088FB8520400001
S11331C001F084FB0820FF3001F072FBDFE70C20E4
S11331D0FF3001F07BFB8520400001F069FBF1E743
S11331E00C20FF3001F064FBF5E701001648FFF7FF
S11331F0F5FE96E778FEFF1FF8F8FFFFDC050000F8
S113320014A0145418A014541CA0145428A014542A
S11332102CA01454280A0000980800006C07000031
S1133220045D000034080000C4090000FC0800002C
S1133230B80B0000540B00008C0A0000E40C0000E2
S11332401C0C000084FEFF1F315D0000F0B5A7B028
S113325015AC072200212000FDF7D8FB7E4A01258A
S11332601A92032205AB1D9307AB1E9309AB20935F
S11332700DAB22930FAB239311AB249313AB0BAE83
S113328003A9002025931AAB1A711C91049325708D
S11332901F94219601F086F8280001F083F880221B
S11332A06E4B12021A6000F0FDFE002300951A0016
S11332B01900180000F0D2FB6948FFF78FFEFA20CE
S11332C0800000F0D0FE6748FFF788FEFA208000F7
S11332D000F0C9FE6448FFF781FEFA20800000F088
S11332E0C2FE624A2B000221614800F0FFFE290061
S11332F0280000F007FF002002F00CF95D4B642168
S113330017936B4600275B181F806B4602315B18CE
S1133310380017A91F70189502F028F92A003900FF
S113332003A8FDF773FB69462A20159B0993A2881D
S11333300A85A27909180A70694603220638091811
S11333400A700B93A2886946B280A2790238B271DE
S11333500522327002260593A2880A83A2790E758B
S11333608A760793A2880A84A27909180A706946A2
S113337004220A770D93A28818300A87A2790918C3
S11333800A706A4634215118082240200A7069469E
S11333900F93A28809180A806946A279801909182E
S11333A00A7068463C22092180180170684611930E
S11333B0A3880C3280180380A37968464A24001934
S11333C0037068460A23063C001903704C206B46C0
S11333D01B1804AA1F701DA82B0001F035F82648FD
S11333E0FFF7FCFD3900300000F084F80822904318
S11333F0C0B2B84202D02148FFF7F0FD2048FFF7E1
S1133400EDFD2048FFF7EAFD1F49204801F036FA98
S11334101F4C2000FFF7E2FDC0231E4A9B001360EF
S11334201D4A1E4813601E4A1360FFF7D7FDFFF7BD
S11334303FFD2000FFF7D2FDE1211D20C90000F06F
S11334400DF90122174B18481A70FFF7C7FD00F059
S11334506DF927B0F0BDC0469D2E0000D4010020B8
S1133460695D0000845D00008A5D000068FEFF1F46
S113347020FFFF1FE0070100935D0000B85D00001E
S1133480EC5D0000F45D000090FEFF1F88FEFF1F4E
S1133490375E00000090145404901454115E000030
S11334A008901454F8FFFF1F325E00001FB504009B
S11334B001A9002002F082F8694601A801F0BCFFCE
S11334C0009B68461C1901A9009401F03DFF0122EC
S11334D001A9002002F09EF81FBD00000022034B4A
S11334E01A608022024BD205DA67704700901C589C
S11334F004E100E070B50D000A2408281CD8FDF78B
S1133500B3FC051D2A3F546771795C0001F032F960
S11335100524012810D0FFF7E1FF2800FFF7C6FFBC
S11335200021080000F0B2FF01210400002000F097
S1133530E9FD002C22D10024200070BD01F01AF90D
S113354006240128F8D0FFF7C9FF2800FFF7AEFFD3
S113355000210120E6E701F00DF908240128EBD051
S113356000F04EFE002803D00121002000F0CAFD27
S11335700021022000F08AFF0028DCD00924DBE7C8
S113358001F0F8F807240028D6D0FFF7A7FF280099
S1133590FFF78CFF0021032000F078FF040001F006
S11335A0E9F801210028C4D1C1E7FFF797FF2800FB
S11335B0FFF77CFF00210420EEE70021082000F043
S11335C065FF041EDAD10121080000F09BFDB3E77A
S11335D0FFF784FF2800FFF769FF0021052000F0B2
S11335E055FFCBE7FFF77AFF2800FFF75FFF0021C5
S11335F00620F4E7FFF772FF2800FFF757FF0021CA
S11336000720ECE7F0B506000D00114B89B05A789D
S113361006AC22800F4A05AF12680792D88880B2A0
S1133620FFF7F6FC3E7004AE3570FFF7C1FC0A4BA1
S11336303A001B68210002930123002001930096A5
S113364001F05EFB002800D0022009B0F0BDC046A6
S1133650F0FFFF1F7CFEFF1F80FEFF1F014B587011
S1133660D9807047F0FFFF1FF8B506001F000F4B0D
S11336701400D8880D0080B2FFF7CAFC310009207D
S1133680FFF7C0FF290006002A20FFF7BBFF210037
S113369005000E20FFF7B6FF390004002B20FFF7CA
S11336A0B1FF35432C432043C0B2F8BDF0FFFF1FE8
S11336B070B588B06A46184B04001B780E00137569
S11336C0182822D8C31F0320012B23D9134B06AD7E
S11336D05A782A80124A12680792D88880B2FFF773
S11336E097FC6B461C75FFF763FC0E4B29001B68A7
S11336F0002002930C4B0196009305AA012301F0CC
S11337000CFB002806D0022004E023001D3B03200C
S1133710142BDBD908B070BD645E0000F0FFFF1FFE
S11337207CFEFF1F80FEFF1FF2FFFF1FF0B593B06A
S11337300622002104A806ADFDF768F9062200213F
S11337402800FDF763F92822002108A8FDF75EF997
S11337500123112239210020FFF786FF4E4B00245C
S1133760D888022780B2FFF753FC39000120FFF705
S11337709FFF494E4949B378F2789B01920813435D
S11337808022920153405B1802A803803900032071
S1133790FFF78EFFB378F2789B01920813438022DF
S11337A03E49920153405B1802A84380390005202A
S11337B0FFF77EFFB378F2789B01920813438022CF
S11337C000269201354953405B1802AA938004AB4A
S11337D0009302ABF35E0193009B0020185E019BF3
S11337E0181AFDF747F8009B019AA8531A8002366D
S11337F002330093062EECD12B886888AA885B4399
S11338004043524318188018FFF7D6FAFCF72AFFF2
S1133810FCF79CFEFDF7F0FC182202AB66009B1837
S11338209853132C35D100210800182402AA4B0008
S11338301219D35A0131C01880B21429F5D1FDF7F9
S113384027FB80B2FFF7B8FAFCF780FEFDF7D4FC43
S113385084B221001248FFF7C1FBFA23DB009C422B
S113386016D91048FFF7BAFB80228525C8240E4BD1
S113387052001A606D00280001F01AF8200000F0D0
S1133880F2FB280001F022F8200000F0ECFBF2E744
S11338900024013469E7C046F0FFFF1F00E0FFFF8A
S11338A0665E00006A5E000028A014540369C268C2
S11338B0934201D880681B18013B981A7047F7B5EA
S11338C08368C46801931F1B436805000E00181920
S11338D0A418974207D83A00FDF744F8019B68689A
S11338E0E41A2200F119FDF73DF8EC60F7BD00235E
S11338F0F7B506001700C568019100933369B468F1
S11339009D421FD2013B5B1B641BBC4200D93C009F
S11339109C4200D91C007368220058190199FDF7D4
S113392021F8009B2D191B190093019B3F1B1B19A8
S11339300193B368AB4200D10025F560002FDDD1BF
S11339400098FEBD1B19DDE7022310B50F4C104A89
S1133950236163610F4BA261E3616423A2640E4A95
S11339602362E26400230422A3626362E362A36528
S11339706365E36522650949E01DFDF769F92000E7
S11339800749FDF765F92023A37110BD64000020E9
S1133990715E0000E0000020DC0000207A5E000080
S11339A07E5E0000F8B516001822451C55434243BC
S11339B0164B0F005D199B18DC6A012C10D0022CE9
S11339C01BD0002C1FD12800FFF770FF864205D8BA
S11339D0320039002800FFF772FF34002000F8BDE0
S11339E02800FFF763FF3400864200D90400220058
S11339F039002800FFF763FFF0E732002800FFF7E3
S1133A0076FF0400EAE70024E8E7C04664000020EB
S1133A10F8B50B4B04001B780E001700002B01D1E6
S1133A20FFF792FFEFF31085012181F310883A002C
S1133A3031002000FFF7B6FF85F31088F8BDC046BB
S1133A406400002070B5050008000C00FDF708F9BB
S1133A50210002002800FFF7DBFF70BDF7B5164C0C
S1133A600193237805000F001600002B01D1FFF706
S1133A706BFF2369AB421CD9EFF31082012181F360
S1133A801088002D0CD01823691C59436B436750D0
S1133A9061184E600199E318196200219962596214
S1133AA018204543089B6419E36282F310880020C0
S1133AB0FEBD01204042FBE764000020826810B58F
S1133AC004004068531C834205D820688154A360D5
S1133AD0E3680133E360A26863689A4209D121680C
S1133AE02069FFF795FFA368984203D001235B4246
S1133AF0E36010BD0023A360FBE70000F0B5050000
S1133B0017000800012685B00A9C02910093B84270
S1133B1019D2009A0196964200D2019201230B9A7F
S1133B201A4003920B9A1A4202D1002C10D100249D
S1133B30EB680126002B4BDB009B012B1FD9013BBB
S1133B4000937E43F8E73900FDF7A2F90136DEE77A
S1133B500B9B20269B0704D5009B1036002B00D01E
S1133B60103E019BA342E3D231002800FFF7A6FFD9
S1133B70EB68013C002BDBDB002CF2D1D7E73100F2
S1133B800298FDF785F98742DBD902983100FDF7E9
S1133B9005FA114B0291195C2800FFF78FFFEB68BF
S1133BA0002B05DB39003000FDF772F9BE4211D25B
S1133BB0039B002B0CD0002C0AD0019BA34207D2FC
S1133BC020212800FFF77AFFEB68013C002BF2DA92
S1133BD005B0F0BD0600D8E7855E0000F0B58FB0F3
S1133BE007900E001800149915000693FCF74EFE7A
S1133BF0069B079A0993149B0D920A9300230B9337
S1133C000C9331780136002907D10C9B0293002BC9
S1133C1000DD09E10C980FB0F0BD252900D0B3E018
S1133C2000270822042006E0302B0DD1022300E0F7
S1133C3001231F430E003378711C2D2BF8D0F3D8C9
S1133C40232B10D02B2B0CD000240A213378721C88
S1133C5018003038092808D84C43303C16001C1989
S1133C60F4E70743E6E71743E4E7002102912E2B2C
S1133C700ED116000A203278711C1300303B092B38
S1133C8006D8029B0E004343303BD3180293F2E75D
S1133C90042331780A0001369A43682A01D1317825
S1133CA0F8E7782909D86F290BD8632967D017D882
S1133CB0252969D0582900D195E00C9B002BA0DA66
S1133CC0A3E7703908000829F7D8FDF7D7F8A5004D
S1133CD0F6FFF6FF9400F6FF8300F6FFF6FF8C0074
S1133CE06429EAD12B681A1D1B682A60DA17981810
S1133CF00393012350400493092849DC029B049A4E
S1133D000593934200D20592002C05D0039B002B0F
S1133D1001DB7B0700D5013C02231F4202D0029B3A
S1133D20002B05D001231F4202D1002C36D10024E0
S1133D300C9B0493002BC0DB039B002B3ADA2D2150
S1133D405B42039309A8FFF7B9FE0C9B002BB4DB7D
S1133D5003233B40022B05D1029B002B02D1002CF4
S1133D602CD100240C9B0493002BA6DB0A22029B7B
S1133D7003990197009409A8FFF7C0FE9DE72B68FB
S1133D8019681A1D2A60C9B209A8FFF797FE94E7BB
S1133D900A21FDF707F9049B0133ACE7059BA34215
S1133DA0C6D2202109A8FFF789FE0C9B013C002BF9
S1133DB0BBDABDE77B07C8D52B21C3E7059BA3422C
S1133DC0D0D2302109A8FFF779FE0C9B013C002BCF
S1133DD0C5DAC7E70A22296801970B1D2B60029BED
S1133DE000940968C7E7296801970B1D2B60029BA3
S1133DF000941022F5E72B681A1D2A601C682178AC
S1133E000134002900D158E709A8FFF757FE0C9B9D
S1133E100293002BF3DA50E729680B1D2B60002373
S1133E20019308330093E4E70B9A002A03D0069920
S1133E300798FFF7EDFD0C9B02930B9B0393039AEA
S1133E40029B944663440C93E4E610B5002000F012
S1133E504BFD10BD10B5002001F03AFC10BD10B5AB
S1133E60002001F031F910BD082310B5164A9178ED
S1133E70194202D091780B439370882100222220AA
S1133E80124B49015A501249124C087080201249B1
S1133E9040025850196811480140196019591048D6
S1133EA00840C02189040143195180210D4B1A7225
S1133EB019767F391A7059700B490A700C32997946
S1133EC01142FCD110BDC04600D007400070044030
S1133ED000E007400410000044100000FFFFF3FF5F
S1133EE0FFFFFFF00040064000500640124913480F
S1133EF010B5814205D00022114B9B089B009A42C9
S1133F000FD1104B104A9960002310491048521ADF
S1133F109A420AD100210F4B0F4AD21A013A08D211
S1133F2010BD84588C500432E9E7CC5CC45401338E
S1133F30EEE719700133F1E7000000000000000013
S1133F400000000000ED00E028610000F05F0000C8
S1133F5000FEFF1F38FFFF1FE40100200300417033
S1133F600020187058609860704710B543780400BA
S1133F700120FF2B08D000F02FFA63780133DBB265
S1133F80637000F01DFA002010BD70B504000D0030
S1133F9000F022FAE1682943E16000F011FA002000
S1133FA070BD000000220A4B9A641A0040329A63E2
S1133FB01A0030329A621A0020329A611A001032C2
S1133FC09A60044A1360044B9B60DB607047C046F0
S1133FD04801002044010020980100200022024BE7
S1133FE01A60186880B270470C007C5070B5437832
S1133FF004000D00002B0BD0002500F0EDF96378D0
S1134000013BDBB26370257000F0DAF9280070BD63
S113401002200029FBD02378002B17D0FFF7DEFF06
S11340206368A268834204D8C01A824206D303207C
S1134030EDE7C01A80235B02C018F6E700F0CCF964
S11340400023237000F0BCF90220E0E74B1CEED003
S113405000F0C2F90123237000F0B2F9FFF7BEFFAC
S1134060A5606060E3E770B50500FFF7B7FF802641
S113407004007602FFF7B2FF0300844203D8031B57
S11340809D42F7D270BD301BC318F9E710B5012863
S113409001D100F0A1F910BD10B5012801D100F043
S11340A08FF910BD10B5FFF77DFF01230020084AEA
S11340B008491360084A094C106008600421216013
S11340C0074C216007490B6007490860136010BD65
S11340D03880045000008450000004500000045153
S11340E00400045104000C500000045310B5044CA7
S11340F0206021710020A2602373637310BDC04649
S1134100A80100200422F0B587B005AC3B4E019015
S113411002912070617033790092834226D9002283
S1134120337B1500737301230092A3700393334F01
S11341303B7BAB421DD8009B002B02D0029B012B82
S113414048D10120FFF7A2FF0C20019B0025584312
S11341503368181800F0B0F8019B0120737102262F
S1134160FFF79AFFA6703B7BAB421AD8009807B0C2
S1134170F0BDBA68AB009B58002B0FD01A79039995
S11341800A420BD020001A6899689047002805D08D
S1134190029B7D73002B1BD0052300930135EDB2E8
S11341A0C5E7BA68AB009B58002B0ED01A7932428F
S11341B00BD020001A6899689047002805D0029B0C
S11341C07D73002B17D0062300930135EDB2CAE7A7
S11341D0052300930023A370013DEDB2FF2DC5D04C
S11341E0064BAA009B68D358002BF5D020001A6810
S11341F099689047F0E706230093B7E7A8010020E9
S1134200014B58797047C046A801002013B504003B
S1134210002021780190022920D0032922D00129ED
S113422025D1227901AB144801F022F8002814D1D9
S1134230A3795A1E9341114ADB01137063785A1E05
S113424093410F4A5B001370A2780E4B1A70E27808
S11342500D4B1A7062790D4B1A7016BD010022794C
S113426001ABE0E701A9044801F044F8DEE701A945
S1134270014800F0E1FFD9E70040064018408653AA
S11342800040865000400650014006501840165029
S1134290F821084A43099B009B180905C2050A40F6
S11342A013438022520513431F2210401E3A8240BA
S11342B01A60704728800440072373B500930023D5
S11342C00400104D1A000121280001F0F3F9200028
S11342D0FFF79CFF637A280000930023217A1A00D9
S11342E001F0E8F9E379084A9B041360074BA17ACB
S11342F01D68280001F01AF82800E17A01F01DF881
S1134300002076BD0070044000700C59E85E000087
S113431010B5054800F050FF044B1968C9B20131CB
S1134320FCF7B6FD10BDC0460040064044801C5E4C
S113433010B5FFF7EDFF10BD10B5054800F03CFFC8
S1134340044B1968C9B20131FCF7A2FD10BDC04687
S1134350004006404480145810B5FFF7EDFF10BD2F
S11343600B4B1B68DBB2022B0CD0032B0DD00020AF
S1134370834206D1074A106880221202904200D07C
S113438018007047044B1868FBE7FA208000F8E730
S113439000700C59D4010020D801002010B5FFF79B
S11343A0DFFF10BD10B5024B185CFFF771FF10BDA5
S11343B0955E000010B56620FFF76AFF10BD00008F
S11343C0044A1368002B04D0013B1360002B00D176
S11343D062B67047B801002072B6024A136801330E
S11343E013607047B801002010B5064C064801F070
S11343F005FB042801D1002010BD013C002CF5D19F
S11344000320F9E7EA03000000E0074010B50B4B76
S11344100B490A78002A07D0084C0A4801F0EEFA42
S1134420012806D1002003E0013B002BF1D1032039
S113443010BD013C002CF0D1F9E7C046EA030000AE
S113444002D0075100E00740F7B507000E00150041
S113445001200193002F15D0002913D0FFF716FE79
S1134460094C102200212000FCF7D0FA27602671A5
S1134470002D03D0019BA560237363730120FFF714
S11344800BFE0020FEBDC046BC010020F0B5B14CBF
S11344908DB002900391237B01206373FFF7F6FD37
S11344A02379029A934206D80120FFF7F5FD0227EB
S11344B038000DB0F0BD029A23689200D35809ACBD
S11344C01D780193039B2A002372029B2370019B96
S11344D0636002239A430492012A01D0052D0AD174
S11344E001219D4801F0DEF9002807D10120FFF7E2
S11344F0D3FD0127DCE70321072DF2D80123002790
S113450063723C000593934E337BA3422AD8012067
S1134510FFF7C2FD914800F073FE049B012B4AD1C2
S11345200138022835D9039B012B00D00DE1062761
S11345300120FFF7ABFD0023012609AD6B72013C9E
S1134540E4B2FF2C00D1AFE0824BA2009B68D358A9
S1134550002BF4D01A793242F1D028001A689968F5
S11345609047ECE7B268A3009B58002B0ED01A7951
S113457005990A420AD01A68996809A89047002840
S113458004D0039B04277473012BC0D10134E4B21B
S1134590B9E7FFF7E1FE724B9842C4D8FFF7B8FEC3
S11345A0704EB042BFD8FFF7C7FEB042BBD8FFF78A
S11345B0BFFEB042B7D8039B012B00D0C1E00A2D47
S11345C000D9BCE02800FCF74FFC060A0D1E879AB0
S11345D07B822F737800002207AB1A702DE0032230
S11345E007ABFAE75C4801F009FA012808D000217A
S11345F0594801F067F9FFF709FF071E00D057E794
S1134600012207ABE9E7544801F0F8F9042808D07F
S11346100221514801F056F9FFF7E6FE071E00D0CB
S113462046E7042207ABD8E7072207AB1A80019AB2
S1134630D2789A70019A1279DA702B00083B022B17
S113464006D8019B06AA5B799372019B9B79D3726E
S1134650019B5B78002B0AD0012D08D9019B022213
S11346609978414B00294DD019690A431A613A4897
S113467007A901F04BF9002800D00327002D45D1EC
S1134680FFF7C4FE071E00D012E700270120FFF742
S1134690FDFC029B2F4D0024AB73022309AE737201
S11346A001932B7BA34236D80120FFF7F5FCFFE6EC
S11346B0082207ABFF321A80BFE72C4A07ABFAE7A0
S11346C0022207AB1A700222FF329A80B5E7022257
S11346D007AB1A70264AF8E7022207AB1A70013AB0
S11346E01D489A8001F08AF90128A6D000211A48B1
S11346F001F0E8F8FFF78AFE071E9ED0D8E60522EF
S113470007AB6AE7196991431961B0E7012DBDD17F
S1134710FFF76AFEB6E7AA68A3009B58002B0BD0EC
S11347201A7901990A4207D030001A6899689047AB
S1134730002801D005276C730134E4B2B1E70327E4
S1134740B6E6002F00D13AE7F2E6002F00D0EFE6FC
S1134750EDE6C046BC01002000E0074000400640F2
S113476040420F0080841E0000ED00E007030000BB
S11347700102000010B5064801F040F903000020D2
S1134780012B03D00B30042B00D10A3810BDC046D6
S113479000E00740F7B5FF2403681D4A1E0A2640BF
S11347A01C40B3009F581B4A05009B5830000193DE
S11347B0FFF7F8FD00222100380001F027F9019BE2
S11347C0A400E41884232A795B05234352001A6069
S11347D080236A795B0523431A609023AA795B05D9
S11347E0234312011A600C4B1C43EB791B04236016
S11347F0EB79002B0AD0094B9B57002B06D01F22C4
S113480013401E3A9A401300054A1360F7BDC04690
S1134810EC5E0000F45E000000001818FC5E00006E
S113482000E100E0F8B5FF2405000368114A180A06
S113483020401C4083009F580F4A9E58FFF7B2FD4A
S113484038002100012201F0E1F86A6821003800F3
S113485001F0EBF888232A7AA400A4195B0523430A
S113486092001A6098235B051C436B7A9B012360BA
S1134870F8BDC046EC5E0000F45E000070B50C00AC
S1134880002807D1002C0FD170BD05000835FFF7B3
S113489081FF280003680133F7D1F3E725002000E6
S11348A00C35FFF7BFFF2C0023680133F6D1EBE78B
S11348B0FF22030A044913409B0059580123104066
S11348C083404B607047C046EC5E0000FF22030A41
S11348D0044913409B0059580123104083408B60C6
S11348E07047C046EC5E0000084B8200D258942307
S11348F010B502325B0513431B78002B02D000F085
S113490019FA10BD00F06CFAFBE7C046985E00008F
S1134910020080230C325B0513431A78002AFCD072
S11349200171704770B50D00084B8000C458200019
S113493029001830FFF75AFB0328F8D0002801D0CB
S113494004232374207CC0B270BDC046CC01002077
S113495010B5104B8000C458E37C002B05D0237C99
S1134960052B02D0237C042B0BD10B4B1858982316
S1134970821C5B05134300221A7001F0C5F8012361
S11349806374A37C002B03D020001830FFF7EDFAEA
S113499010BDC046CC010020985E0000F0B51700A1
S11349A0002289B005930EAB1B78050003938300A6
S11349B032481E5832481C5807AB1A80A37C880A18
S11349C004930223FF3363828B0A0193CBB21E2824
S11349D001D11A000B0A5B00D8B2019B00211E2BE7
S11349E005D08F4203D1012303995B1A59B20143C5
S11349F0CBB202930299019807AB197001211E28CA
S1134A0001D15A704918A3603000E1600299FFF7A0
S1134A107FFF28000F99FFF785FF237C002B0CD123
S1134A20002F0AD0059BA760E36030003978FFF7B8
S1134A306FFF28000F99FFF775FF237C039A1A4331
S1134A4014D1019B1E2B01D0002F0FD0002301276E
S1134A503000A360E76001F045F802993000394363
S1134A60FFF756FF28000F99FFF75CFF0023207C17
S1134A70E374049BC0B2A37409B0F0BD985E000057
S1134A80CC010020F7B583000193184B8200D7585E
S1134A9005000C000126002F26D1154B3900D358F0
S1134AA0200024220193FBF7B1FF200039001830C5
S1134AB0FFF754FA2800FFF77DFC019800F0BDFFD2
S1134AC00A4BAA00D4501F220A4B5B5D13403200EC
S1134AD09A40094B1A609C22019B520502331343EE
S1134AE0802266743E001A703000FEBDCC010020A6
S1134AF0985E00009C5E000000E100E00A4B80002C
S1134B0070B5C5584B686A690C0093420BD0074BCB
S1134B10C658FFF711FC002301006268300000F062
S1134B209BFF63686B6170BDCC010020985E000040
S1134B30F0B587B004920593334A0FAB1E78830017
S1134B409C580391627C0700002A03D1032020743F
S1134B5007B0F0BD002E01D11E220E922B4A380060
S1134B60D55800230399E360A3602374236063741E
S1134B70A674FFF7C3FF90231021AA1C5B051343FF
S1134B8019708423E91C5B050B43022119709823D7
S1134B905B05134302934023029A2800137000F02C
S1134BA0A1FF039B380019880E9B049A01930123EB
S1134BB00093059BFFF7F2FE0D9B002B17D0237C7F
S1134BC0002B11D10C9B2800A3600D9BE3600C9B70
S1134BD01978FFF79DFE002E03D038000E99FFF7D9
S1134BE0A1FE207CC0B2B3E7237C042BF9D10023BF
S1134BF00126029A1370EB785B09334202D0280035
S1134C0000F082FF6674ECE7CC010020985E00009F
S1134C10F0B589B0079311AB1B780692364A02931C
S1134C2083009C580591627C0600002A03D103206E
S1134C30207409B0F0BD029A002A01D11E321092EC
S1134C4000272E4A0599D5580E9B300023600F9BF0
S1134C50A7606360029BE760A37427746774FFF71F
S1134C604DFF9023AA1C5B051A4310231370842361
S1134C7004925B05EA1C134302221A709823AA18B3
S1134C805B051A43402328001370039200F02AFFA7
S1134C90059B069A1988109B300001930097079B87
S1134CA0FFF77CFE237CDAB2BB4215D1049BA91C1E
S1134CB01A708C235B050B430F99012900D108223C
S1134CC01A702B79029B002B03D030001099FFF748
S1134CD029FE207CC0B2ACE7237C042BF9D1012649
S1134CE0039B1F70EB785B09334202D0280000F06D
S1134CF00BFF6674EDE7C046CC010020985E00000F
S1134D001FB501240394089C0294079C0194069CFB
S1134D100094FFF70DFF04B010BD1FB501240394E8
S1134D20089C0294079C0194069C0094FFF770FF72
S1134D3004B010BD244B70B58400E5588423EA1CEC
S1134D405B05134302221A709023A9185B050B43D9
S1134D501B78EA78DBB292061DD5942252050A43E9
S1134D601278002A17D0194AA458012B14D1EA78D2
S1134D701A4204D004332374FFF7EAFD0BE0E3681E
S1134D80013BE360002BF7D0A36828005A1CA26003
S1134D905978FFF7BDFD70BD6268013A6260002A70
S1134DA006D08C235B05012A0AD000220B4309E0BC
S1134DB0FFF7CEFD23685A1C22602A791A70EAE7AD
S1134DC008220B431A70F5E7985E0000CC0100201E
S1134DD0C31C84204005184302230370704700005D
S1134DE00122F0B5904B8100CD5889B0EB1C0193A2
S1134DF0EB7890261B091A4005920122EB78760580
S1134E009B091A4002923200AB1D1A439446127851
S1134E100090D2B20792942252051A431278AF1C22
S1134E20D0B203909820400503431878C0B206908E
S1134E307E480C583100394301910978C9B2049174
S1134E40002A35D0079A002A0ED010236246280083
S1134E501370FFF7BDFF236B002B52D06A4601216C
S1134E601078626B98474CE0069A002A20D04022C2
S1134E7028001A70FFF7ACFF23002C331B78002B9B
S1134E8003D19822520517433B70236B002B04D0A7
S1134E906A4680211078626B9847E37D002B04D02A
S1134EA0200080211830FFF770F80A23237028E0CF
S1134EB02800FFF78DFF059B002B24D0EB1C1E431D
S1134EC010233370029B002B10D0EB785B07DA0FB2
S1134ED0002B48DB019B1A70236B002B04D06A461D
S1134EE004211078626B98472B790AE00823237019
S1134EF02C342378002B04D198235B051F43029B99
S1134F003B7009B0F0BD029B002BDED1049B012B4A
S1134F1054D1EB78049A134230D0019B029A1A7050
S1134F202B7923002C331B78002B07D1039B002BF8
S1134F3004D198235B051F43039B3B70236B002B19
S1134F4004D06A4608211078626B9847A37D002B31
S1134F5004D0200008211830FFF717F800236360FD
S1134F60E3602375CDE71023019A1370236B002BA4
S1134F7004D06A4602211078626B98476368002B5C
S1134F8050D028008022E3680C305205197802437F
S1134F9010780028FCD029710133E3606368013B79
S1134FA063606368002BACD1E3602375236B002B33
S1134FB0A7D06A4610211078626B53E72B79A26858
S1134FC0DBB2002A2CD022691370236901332361D8
S1134FD0A368013BA360A368002B00D091E7039B67
S1134FE0002B11D123002C331B78002B04D19823E0
S1134FF05B051F43039B3B70E37D002B04D0200023
S113500020211830FEF7C1FF002363752361236B51
S1135010002B00D175E76A4620211078626B21E7E6
S1135020072343E7062341E7985E0000CC010020F4
S1135030042902D0072907D07047902303305B0569
S1135040184310230370F7E79C2303305B051843D0
S11350508023F7E7DC2270B50024094B8000C55893
S1135060084B5205C35808331A431460AA7CA24261
S113507003D028001430FEF778FF2C7470BDC046AE
S1135080D0010020A05E00000C4B800070B5C55814
S11350900B4B0024C058D42302005B050832134391
S11350A01C602200074900F050FDEB7CA34203D0B2
S11350B028002030FEF759FF6C7470BDD001002029
S11350C0A05E00001B000200F8B52B4A83009C5828
S11350D00600227C002A02D1627C002A3ED0274AA4
S11350E0D558DC232F005B051A0008373A431268B1
S11350F0002A15D02A1D13431B68002B10D0A36867
S1135100002B0DD023681A780133EA602360A3686A
S1135110013BA360A368002B02D13000FFF79AFF84
S1135120D4235B051F433A68002A0DD02A1D13437C
S11351301B68002B08D0EB6862681370E36A002BCD
S11351400DD021003000984728000D4900F03EFDA5
S1135150002803D028000A4900F03CFDF8BD63682C
S113516001336360E368013BE360E368002BEBD148
S11351703000FFF789FFE7E7D0010020A05E0000C0
S11351801300010084225205024312780300D0B2B6
S1135190002A0CD0802001334005034318780138DD
S11351A043425841024B40421840024BC0187047DA
S11351B0808D5B0080841E0010B50D4B821D13434F
S11351C01A780400D3B2002A0FD0012B07D1FFF7BD
S11351D0D9FF084B08341C432378D84010BD002065
S11351E0022BFBD1044B1868F8E70448F6E7C046E5
S11351F00000081100009010D4010020006CDC02B3
S11352000C4A811D0A4312780300D0B2012A04D04B
S113521002280BD000280BD170478022013352059D
S113522013431B78002BF7D10220F5E70320F3E7A3
S11352300520F1E70000081102009C2318325B05E9
S1135240134380221A700022064B03431A70064B44
S1135250063018430378DAB2002BFBD1034B10005D
S11352600B6070470000081300000811006CDC029A
S1135270F8B504000D0016001F00FFF7C1FF012858
S113528023D1002D25D08023621C5B0513431D70A0
S1135290842302225B0523431A702200104B083238
S11352A013437200D2B21A7040220E4B0E482343AD
S11352B006341A7004432378012BFCD1002D0DD140
S11352C00A4B334100203B60F8BD0228DBD1012D9D
S11352D0D9D139002000FFF7AFFFD4E7044BF0E742
S11352E000009010000008130000081180841E00C4
S11352F000127A0010B50A4C030022680120002A2B
S11353000CD0084A7F301A43107007480633034311
S11353101A78022AFCD1002023680B6010BDC04615
S1135320D401002000000813000008119C23C901C7
S11353305B050343C9B219707047942349015B05A7
S11353400343C9B21970704770B506680C00300089
S11353502049FBF79DFD1F4905003000FBF71EFEA9
S11353600E00E12130000901FBF792FDE121E0800C
S113537009013000FBF712FE0E003C213000FBF760
S113538087FD3C2120813000FBF708FE6E22A172CC
S11353900321114BFF322380238895420AD80F49F9
S11353A09B0700D10E490123CA5CAA420CD3638037
S11353B0A58070BD01339BB223800B40AD1A5A42C5
S11353C05A416E32FF32E7E70133AD1A0D2BEBD1B0
S11353D0EEE7C04680510100B2070000CC5E000039
S11353E0A45E00000188114A03008A18002030B529
S11353F0812A17D85A88541E0B2C13D89C88651EF2
S11354001E2D0FD8DD88172D0CD81D893B2D09D8EA
S11354109B7A3B2B06D88B0705D0054B9B5CA3429C
S11354204041C0B230BD034BF8E7C0464EF8FFFF21
S1135430CC5E0000A45E000070B5134D8388028822
S11354405B196E25FF35554344885B1995085B1934
S11354500E4D6600755B5B19920710D00B600A68ED
S11354600B4BC4885343827A00899B18E1221201B2
S113547062439B183C2242439B180B6070BD022C74
S1135480ECD8013BEAE7C0464A05F5FFB25E0000EE
S1135490805101008023084A1B0212689A4209D1F4
S11354A0A02310305B0518430368002B02D101339D
S11354B0FF3303607047C046D401002001008022FE
S11354C010B5002301245205103111430C600B6008
S11354D090214360490504601C3001430B6088211E
S11354E0490501430B6084214905014310430B60C6
S11354F0036010BD0200902314325B0513430022A5
S11355001A604260103201601A60704703680B60D1
S113551070470000104B820070B5D55880220400FB
S11355200E4B92051A602800FFF7C8FF2800FFF70A
S1135530B1FF0B4B1F261A5D0123180009493240A5
S1135540095DC025314090408B40074A6D005051A1
S113555053511060136070BDDC5E00003C80845EBB
S1135560E05E0000E15E000000E100E0F7B5002726
S1135570114B8000C55808000E000197FFF732FF59
S11355800400B84216D001A93000FFF755FF3800D7
S1135590FEF704FF010080200002814206D0FBF7E1
S11355A077FC01000198FBF773FC01902800019936
S11355B0FFF7A0FF2000FEBDDC5E0000F7B500256C
S11355C0124B8000C4580E00200001A90195FFF77A
S11355D09DFF2800FEF7E2FE0500802000028542C0
S11355E00ED00B4B290004341C43FBF751FC2768F5
S11355F0019C29004443B8B2FBF74AFC24180194E7
S1135600310001A8FFF7A0FEF7BDC046DC5E000034
S113561000007810F0B50027184B800085B0C558FD
S113562008000E0001920397FFF7DCFE0400B84265
S113563003D10024200005B0F0BD300003A9FFF71A
S1135640FBFE38002E68FEF7A9FE01008020000250
S1135650814206D0FBF71CFC01000398FBF718FC01
S11356600390039BB342E4D3AB6088231C355B05F2
S11356701D43019B9A002A60DCE7C046DC5E000003
S1135680044B8000C25888231C325B0513438900F5
S113569019607047DC5E0000054B8000C258882307
S11356A014325B0513431868431E9841C0B2704717
S11356B0DC5E00006B46E0221B78D2021B04134020
S11356C0024A09070B438018036070474410000026
S11356D0084B8200D258902310B503325B05134364
S11356E01B78002B02D000F025F810BD00F08AF8DA
S11356F0FBE7C046E45E00009C210C4B0C4A800092
S1135700C3588258002003324905114310B518715B
S11357100870942149050A4310701A7F824203D00D
S113572020331800FEF721FC10BDC046DC01002028
S1135730E45E000010B51E4B8200D358197900298D
S113574034D01C4951585A69002A11D09C22520560
S11357500A431278002A0BD08A79DC68D2B2002C72
S113576003D02270DA680132DA605A69013A5A6168
S11357701A69002A12D0942252050A431278002A88
S11357800CD09A68141E02D0147801329A608C717D
S11357901A69013A1A619A6901329A611A69002AEE
S11357A004D15B69002B01D1FFF7A6FF10BDC046F1
S11357B0DC010020E45E0000104A800081580022D1
S11357C00F4B10B5C3580331581CC2779C204005B9
S11357D00843DA621A701A835A629A621A63027070
S11357E09420400501430A701A0038321278002AC6
S11357F003D00121181DFEF7C8FB10BDE45E0000B4
S1135800DC01002070B5254B8200D358591CC97F98
S1135810002942D022495258D96A002917DB942121
S1135820490511430978002911D0D969CCB2596AC4
S1135830002905D0DD6A002D02DD0C7801315962A2
S11358409471D96A0139D962596B01315963D96AA2
S1135850002905DA9421D41C4905214300240C7045
S1135860196B002911DD9C21490511430978002990
S11358700BD09279996AD2B2002903D00A709A6A3D
S113588001329A621A6B013A1A63DA6A002A04DC5A
S11358901B6B002B01DCFFF78FFF70BDDC010020C8
S11358A0E45E0000012903D0032909D000207047D9
S11358B094235B0518430078431E9841C0B2F6E771
S11358C08423F6E7431C034849011843C9B2017015
S11358D07047C04600008812831C9420490140058B
S11358E01843C9B201707047831C034889011843E7
S11358F0C9B201707047C04600000813831C8C2095
S1135900C90040051843C9B201707047F7B50400D7
S1135910364EE31C1E43337808780D00DBB20728AB
S113592060D8FBF7A1FA04192B0E192B2B45304B29
S113593001341C43002323703378012BFCD1002055
S1135940FEBD012BFCD12A4B01341C4340232370A0
S11359503378042BFCD1F2E70021012801D0042084
S11359600231337898423FD12000FFF7ABFF042186
S1135970204A13698B43136130BFE0E70227B84222
S113598007D100270B79BB4203D020004979FFF7E8
S1135990ABFF194B01341C4327703378154ADBB233
S11359A00193019B01330193042311690B43E2E743
S11359B00421114B621C1A4311706A78A11C0B4319
S11359C01A70002A06D1AB78002B03D02000E978A6
S11359D0FFF782FFAB79002BDFD02000E979FFF7D6
S11359E08DFFDAE70120ABE70320A9E700003010C0
S11359F00000881200ED00E000001010C31C0248F3
S1135A0018430078C0B270470000301001231430EE
S1135A108B40012A04D18022120510430360704791
S1135A208022D204DB431043F8E701238B40002A91
S1135A3001D0436070478360FCE70023C2220370F7
S1135A4043708370C37043718371C3710372427274
S1135A508372C37270470000F0B5002487B00293CC
S1135A60FA230126270025009B0053430390049149
S1135A70009301947642AB000593194BAA009B183E
S1135A8059880498A140FBF703FA009B009AC31AB3
S1135A90824200D9131AB3421FD2114AA900525CA0
S1135AA027000192002B02D00135322D13D101348D
S1135AB0032C01D0002B0DD1029A002A00D01360D0
S1135AC03F220199BB0111400B43039ADBB253708F
S1135AD007B0F0BD00251E00CDE73300E4E7C04663
S1135AE0FE5E0000942302305B0503431B78002B09
S1135AF005D088235B051843042303707047802373
S1135B001B0518433023F8E7942210B55205841C72
S1135B10224311780300CAB2022001290DD1802149
S1135B20C90421438024CD300870E400033319787C
S1135B30490908001040114200D110BD013C002C5D
S1135B4001D0C046F3E70920F7E7012310B58B40E5
S1135B500400080C04280AD8FBF786F9030E14176E
S1135B601A008020002A03D000050443236010BDDE
S1135B70C004DB430443F9E7201D8024002A0AD033
S1135B802405F2E720000830F7E720000C30F4E7A2
S1135B9020001030F1E7E404EBE70200002300B535
S1135BA0080C042808D80133FBF75EF903080A0C33
S1135BB00E001068C8400340180000BD5068F9E7A3
S1135BC09068F7E7D068F5E71069F3E710B5FFF7D9
S1135BD0E4FF10BD294A0300881800B510284BD8EB
S1135BE0FBF742F9433C27201912094A4A4A4A2E34
S1135BF04A4A4A4A3500D0208022043340050343F0
S1135C00520300201A6000BDCC20802204334005DA
S1135C1003431203F5E7C8208022043340050343FD
S1135C20D202EEE7C42080220433400503439202EB
S1135C30E7E7C02080220433400503435202E0E733
S1135C40FC2080220433400503431206D9E7F820E0
S1135C508022043340050343D205D2E7BC208022CE
S1135C600433400503431202CBE7B82080220433F7
S1135C7040050343D201C4E70320C4E7F2FFFEFF5B
S1135C8008FEFF1F701B0000D8190000B6190000A1
S1135C90CA1A0000B61900000E1B0000B619000055
S1135CA0CA1A0000D8190000D81900000E1B000001
S1135CB0CA1A00007C1A00007C1A00007C1A00003A
S1135CC01C1B0000A8220000D6210000D6210000E1
S1135CD0D2210000DC210000DC210000C8240000E7
S1135CE0D2210000DC210000C8240000DC210000D7
S1135CF0D22100006624000066240000662400000F
S1135D00322500001B5B306D1B5B343B34336D1B51
S1135D105B313B33376D0D53616E69747920636871
S1135D2065636B206661696C6564211B5B306D0A79
S1135D30001B5B306D1B5B343B34316D1B5B313BB3
S1135D4033376D0D496E76616C69642073757070BC
S1135D506C7920766F6C74616765205B25645D20C7
S1135D606D56211B5B306D0A000A0A0A0D426F6FE3
S1135D7074696E6720576172702C20696E20332E0F
S1135D802E2E2000322E2E2E2000312E2E2E0A0AE8
S1135D900A0D0041626F757420746F207377697403
S1135DA063682043505520746F20564C5052206D28
S1135DB06F64652E2E2E2000776172705365744CCB
S1135DC06F77506F7765724D6F6465286B5761729A
S1135DD070506F7765724D6F6465564C5052282928
S1135DE0206661696C65642E2E2E0A00646F6E65F0
S1135DF02E0A0D0041626F757420746F204750495C
S1135E004F5F4452565F496E697428292E2E2E2006
S1135E100041626F757420746F206C6F77506F77D8
S1135E20657250696E53746174657328292E2E2E21
S1135E302000426F6F7420646F6E652E0A000A772B
S1135E406172705072696E7428293A2076736E708C
S1135E5072696E74662829206661696C65642E2EE9
S1135E602E0A0A00FF0025640A0046414C4C210A10
S1135E70005465726D696E616C0052545400534550
S1135E80474745520030313233343536373839419B
S1135E904243444546898A000060064008000000E9
S1135EA000400540001F1D1F1E1F1E1F1F1E1F1E1A
S1135EB01F00000000001F003B005A0078009700FC
S1135EC0B500D400F300110130014E01001F1C1F66
S1135ED01E1F1E1F1F1E1F1E1F00000000D0034098
S1135EE014150000006007400050064000F00F4009
S1135EF040F00F400090044000A004401E1F00002A
S1135F001400010016000200180003001A00040027
S1135F101C0005001E0009002000060022000A00E3
S1135F202400070028000C002C0010003000110091
S1135F303800120040000F00440013004800140011
S1135F4050001500580019006000160068001A007F
S1135F507000170080001C0090001D00A0001E00AF
S1135F60C0002200E0001F00F00023000001240014
S1135F70200125004001260080012A00C0012700DD
S1135F80E0012B0000022C0040022D0080022E00B4
S1135F900003320080032F00C003330000043400E8
S1135FA0800435000005360000063A00000737007B
S1135FB080073B0000083C0000093D00000A3E0049
S1135FC0000C3F00000F0000F8B5C046F8BC08BC48
S1135FD09E467047F8B5C046F8BC08BC9E4670475C
S10B5FE0C8A4FF7F01000000CA
S1075FE88504000028
S1075FEC5904000050
S1135FF0FF00000008FEFF1F00000000000000007A
S1136000000000000000000000000000000000008C
